:100000000C942A000C9447000C9447000C94470071
:100010000C9447000C9447000C9447000C94470044
:100020000C9447000C9447000C9447000C94470034
:100030000C9447000C9447000C9447000C94470024
:100040000C9447000C9447000C9447000C94470014
:100050000C94470011241FBECFE5D8E0DEBFCDBF12
:1000600010E0A0E6B0E0E6E1F3E402C005900D92F6
:10007000A03FB107D9F710E0A0EFB0E001C01D929A
:10008000A43FB107E1F70E9404210C9489210C944C
:100090000000EF92FF920F931F937B018C0120E0F1
:1000A00030E040E05FE40E94F50388238CF0C80153
:1000B000B70120E030E040E05FE40E94C1010E940F
:1000C00055049B01AC01205030404040504806C0D0
:1000D000C801B7010E9455049B01AC01B901CA01D6
:1000E0001F910F91FF90EF900895A0E0B0E0EBE733
:1000F000F0E00C940D21DC012B01FA019C9192306F
:1001000008F439C1EB018881823008F433C194309E
:1001100069F4843009F02FC111969C91119789815F
:10012000981709F428C1A8EEB0E025C1843009F47D
:1001300021C18230A9F4923009F01DC19A01AD01AC
:1001400088E0EA010990AE01E90109929E0181501F
:10015000C1F7E201898111969C918923818308C1AD
:10016000923009F407C112962D903C901397EB0141
:100170008A819B811496AD90BD90CD90DC901797AD
:10018000EC80FD800E811F819101281B390BB90184
:1001900037FF04C066277727621B730B6032710537
:1001A0000CF061C0121613066CF537014801062EDB
:1001B00004C096948794779467940A94D2F721E0C8
:1001C00030E040E050E004C0220F331F441F551FB1
:1001D0006A95D2F721503040404050402E213F21B7
:1001E00040235123211531054105510521F021E01E
:1001F00030E040E050E079018A01E628F72808293C
:1002000019293CC0232BD1F1260E371E350146019A
:10021000062E04C096948794779467940A94D2F734
:1002200021E030E040E050E004C0220F331F441FC3
:10023000551F6A95D2F721503040404050402A2146
:100240003B214C215D21211531054105510521F04E
:1002500021E030E040E050E059016A01A628B728CB
:10026000C828D9280BC0821593052CF01C01AA249C
:10027000BB24650103C0EE24FF24870111969C91E5
:10028000D20111968C91981709F445C0992339F041
:10029000A80197012A193B094C095D0906C0A6016E
:1002A00095012E193F09400B510B57FD08C01182D3
:1002B0003382228224833583468357831DC081E0A5
:1002C00081833382228288279927DC01821B930B4A
:1002D000A40BB50B84839583A683B7830DC0220F2F
:1002E000331F441F551F24833583468357838281E0
:1002F000938101979383828324813581468157813D
:10030000DA01C9010197A109B1098F5F9F4FAF4F72
:10031000BF4328F30BC0918333822282EA0CFB1C7B
:100320000C1D1D1DE482F5820683178383E0808304
:10033000248135814681578157FF1AC0C901AA27F8
:1003400097FDA095BA2F81709070A070B0705695EF
:10035000479537952795822B932BA42BB52B848318
:100360009583A683B7838281938101969383828349
:10037000DF0101C0D201CD01CDB7DEB7E2E10C94BF
:100380002921A0E2B0E0E7ECF1E00C9419216983A7
:100390007A838B839C832D833E834F835887E9E048
:1003A000EE2EF12CEC0EFD1ECE010196B7010E943F
:1003B0007E058E010F5E1F4FCE010596B8010E948B
:1003C0007E058A8991E089278A8BC701B801AE0131
:1003D000475E5F4F0E9475000E94A904A096E6E068
:1003E0000C943521A0E2B0E0E8EFF1E00C94192183
:1003F00069837A838B839C832D833E834F835887C5
:10040000F9E0EF2EF12CEC0EFD1ECE010196B701A6
:100410000E947E058E010F5E1F4FCE010596B8012A
:100420000E947E05C701B801AE01475E5F4F0E9482
:1004300075000E94A904A096E6E00C943521A0E284
:10044000B0E0E5E2F2E00C940D2169837A838B83BE
:100450009C832D833E834F835887CE010196BE0136
:10046000675F7F4F0E947E05CE010596BE016F5EDD
:100470007F4F0E947E059985923088F0898982306D
:10048000C8F0943019F4823051F404C0843029F457
:10049000923081F488EE90E0C6C0923049F420E0BA
:1004A0009A858A89981321E02A87CE010996BBC0D4
:1004B000823049F420E09A858A89981321E02A8BBA
:1004C000CE014196B0C02D843E844F8458886D88FB
:1004D0007E888F88988CEE24FF248701AA24BB2471
:1004E000650140E050E060E070E0E0E0F0E0C10174
:1004F00081709070892BE9F0E60CF71C081D191D1E
:100500009A01AB012A0D3B1D4C1D5D1D80E090E062
:10051000A0E0B0E0E614F7040805190520F481E036
:1005200090E0A0E0B0E0BA01A901480F591F6A1F8E
:100530007B1FAA0CBB1CCC1CDD1C97FE08C081E0F5
:1005400090E0A0E0B0E0A82AB92ACA2ADB2A3196B6
:10055000E032F10549F0660C771C881C991C569412
:10056000479437942794C3CFFA85EA892B893C892D
:100570008B859C85280F391F2E5F3F4F17C0CA01FE
:1005800081709070892B61F016950795F794E79428
:1005900080E090E0A0E0B0E8E82AF92A0A2B1B2BC3
:1005A00076956795579547952F5F3F4F77FDE7CF36
:1005B0000CC0440F551F661F771F17FD4160EE0CDE
:1005C000FF1C001F111F21503040403090E05907A0
:1005D00090E0690790E4790760F32B8F3C8FDB0193
:1005E000CA018F779070A070B07080349105A1051A
:1005F000B10561F447FD0AC0E114F10401051105DC
:1006000029F0405C5F4F6F4F7F4F40781A8EFE1786
:1006100011F081E08A8F4D8F5E8F6F8F78A383E01A
:10062000898FCE0149960E94A904A096E2E10C941C
:100630002921A8E1B0E0EFE1F3E00C9415216983F2
:100640007A838B839C832D833E834F835887B9E0C5
:10065000EB2EF12CEC0EFD1ECE010196B7010E948F
:100660007E058E010F5E1F4FCE010596B8010E94D8
:100670007E052985223008F47EC03989323010F495
:10068000B8017CC08A859A8989278A87243011F02D
:10069000223031F4231709F06EC068EE70E06EC0AE
:1006A000343039F41D861E861F86188A1C861B86E8
:1006B00004C0323021F484E08987B7015FC02B8504
:1006C0003C858B899C89281B390B3C872B87ED84C3
:1006D000FE840F851889AD88BE88CF88D88CEA142F
:1006E000FB040C051D0540F4EE0CFF1C001F111F40
:1006F000215030403C872B8720E030E040E050E044
:1007000080E090E0A0E0B0E460E070E0EA14FB0478
:100710000C051D0540F0282B392B4A2B5B2BEA18C2
:10072000FB080C091D09B695A79597958795EE0CC2
:10073000FF1C001F111F6F5F7F4F6F31710531F775
:10074000DA01C9018F779070A070B0708034910584
:10075000A105B10561F427FD0AC0E114F10401050A
:10076000110529F0205C3F4F4F4F5F4F20782D87B8
:100770003E874F87588BBE01675F7F4FCB010E943A
:10078000A9046896EAE00C943121A8E1B0E0EBEC12
:10079000F3E00C94192169837A838B839C832D83E6
:1007A0003E834F83588789E0E82EF12CEC0EFD1E26
:1007B000CE010196B7010E947E058E010F5E1F4F8C
:1007C000CE010596B8010E947E058985823040F0F1
:1007D0008989823028F0C701B8010E94F60501C05E
:1007E0008FEF6896E6E00C943521A8E1B0E0EBEFDE
:1007F000F3E00C94192169837A838B839C832D8386
:100800003E834F83588789E0E82EF12CEC0EFD1EC5
:10081000CE010196B7010E947E058E010F5E1F4F2B
:10082000CE010596B8010E947E058985823040F090
:100830008989823028F0C701B8010E94F60501C0FD
:100840008FEF6896E6E00C943521A8E1B0E0EBE28A
:10085000F4E00C94192169837A838B839C832D8324
:100860003E834F83588789E0E82EF12CEC0EFD1E65
:10087000CE010196B7010E947E058E010F5E1F4FCB
:10088000CE010596B8010E947E058985823040F030
:100890008989823028F0C701B8010E94F60501C09D
:1008A00081E06896E6E00C943521ACE0B0E0EBE541
:1008B000F4E00C941D2169837A838B839C83CE01A1
:1008C0000196BE016B5F7F4F0E947E058D81823055
:1008D00061F1823050F1843021F48E81882351F10E
:1008E0002EC02F81388537FD20C06E812F31310514
:1008F0001CF06623F9F023C08EE190E0821B930B7D
:1009000029853A854B855C8504C056954795379572
:1009100027958A95D2F76623B1F05095409530958A
:1009200021953F4F4F4F5F4F0EC020E030E040E039
:1009300050E009C02FEF3FEF4FEF5FE704C020E02A
:1009400030E040E050E8B901CA012C96E2E00C9496
:100950003921DF92EF92FF920F931F93FC01E48005
:10096000F58006811781D1808081823048F480E053
:1009700090E0A0E1B0E0E82AF92A0A2B1B2BA5C0E1
:10098000843009F49FC0823021F4EE24FF248701D3
:1009900005C0E114F1040105110519F4E0E0F0E0EF
:1009A00096C0628173819FEF623879070CF05BC05B
:1009B00022E83FEF261B370B2A3131052CF020E0CF
:1009C00030E040E050E02AC0B801A701022E04C088
:1009D00076956795579547950A94D2F781E090E010
:1009E000A0E0B0E004C0880F991FAA1FBB1F2A9582
:1009F000D2F70197A109B1098E219F21A023B1232C
:100A00000097A105B10521F081E090E0A0E0B0E001
:100A10009A01AB01282B392B4A2B5B2BDA01C90138
:100A20008F779070A070B07080349105A105B105EA
:100A300039F427FF09C0205C3F4F4F4F5F4F04C080
:100A4000215C3F4F4F4F5F4FE0E0F0E02030A0E0EF
:100A50003A07A0E04A07A0E45A0710F0E1E0F0E00E
:100A600079018A0127C06038710564F5FB01E158FE
:100A7000FF4FD801C7018F779070A070B07080349D
:100A80009105A105B10539F4E7FE0DC080E490E0C1
:100A9000A0E0B0E004C08FE390E0A0E0B0E0E80E9A
:100AA000F91E0A1F1B1F17FF05C016950795F7941F
:100AB000E794319687E016950795F794E7948A9521
:100AC000D1F705C0EE24FF248701EFEFF0E06E2F91
:100AD000679566276795902F9F77D794DD24D794E5
:100AE0008E2F8695492F462B582F5D29B701CA01B5
:100AF0001F910F91FF90EF90DF900895FC01DB01B3
:100B0000408151812281622F6F7770E0221F22275E
:100B1000221F9381892F880F822B282F30E0991F65
:100B20009927991F11969C93119721153105A9F5C5
:100B3000411551056105710511F482E037C082E865
:100B40009FEF13969C938E9312979A01AB0167E0E7
:100B5000220F331F441F551F6A95D1F783E08C93F2
:100B60000DC0220F331F441F551F12968D919C916B
:100B70001397019713969C938E931297203080E0E1
:100B8000380780E0480780E4580758F314962D93FF
:100B90003D934D935C93179708952F3F310579F45A
:100BA000411551056105710519F484E08C93089590
:100BB00064FF03C081E08C9312C01C9210C02F57B9
:100BC000304013963C932E93129783E08C9387E0EA
:100BD000440F551F661F771F8A95D1F770641496CE
:100BE0004D935D936D937C93179708951F93DC014C
:100BF000FB019C91923008F447C08081823008F458
:100C000043C0943051F411961C91843099F5818140
:100C1000682F70E0611B71093FC0843021F0923071
:100C200031F48230B9F18181882389F12DC0119688
:100C30001C9111978230F1F081811817D9F4129626
:100C40002D913C911397828193818217930794F0A1
:100C500028173907BCF014968D919D910D90BC9189
:100C6000A02D2481358146815781281739074A07ED
:100C70005B0718F4112341F00AC082179307A407F9
:100C8000B50740F4112319F061E070E005C06FEF83
:100C90007FEF02C060E070E0CB011F910895DF9309
:100CA000CF9300D000D00F92CDB7DEB789836A838F
:100CB0004B838981282F30E03D832C838C819D815B
:100CC0008130910509F447C02C813D8122303105E6
:100CD0002CF48C819D81009771F0CBC02C813D81DB
:100CE0002230310509F467C08C819D8183309105E4
:100CF00009F491C0BEC08B818130A1F4AAE3B0E0B9
:100D0000EAE3F0E08081482F8A81282F30E081E0FB
:100D100090E0022E02C0880F991F0A94E2F7842BFC
:100D20008C93A7C08B81882309F0A3C0AAE3B0E00D
:100D3000EAE3F0E08081482F8A81282F30E081E0CB
:100D400090E0022E02C0880F991F0A94E2F7809566
:100D500084238C938EC08B818130A1F4A7E3B0E013
:100D6000E7E3F0E08081482F8A81282F30E081E09E
:100D700090E0022E02C0880F991F0A94E2F7842B9C
:100D80008C9377C08B81882309F073C0A7E3B0E010
:100D9000E7E3F0E08081482F8A81282F30E081E06E
:100DA00090E0022E02C0880F991F0A94E2F7809506
:100DB00084238C935EC08B818130A1F4A4E3B0E0E6
:100DC000E4E3F0E08081482F8A81282F30E081E041
:100DD00090E0022E02C0880F991F0A94E2F7842B3C
:100DE0008C9347C08B81882309F043C0A4E3B0E013
:100DF000E4E3F0E08081482F8A81282F30E081E011
:100E000090E0022E02C0880F991F0A94E2F78095A5
:100E100084238C932EC08B818130A1F4A1E3B0E0B8
:100E2000E1E3F0E08081482F8A81282F30E081E0E3
:100E300090E0022E02C0880F991F0A94E2F7842BDB
:100E40008C9317C08B818823A1F4A1E3B0E0E1E388
:100E5000F0E08081482F8A81282F30E081E090E007
:100E6000022E02C0880F991F0A94E2F7809584230E
:100E70008C930F900F900F900F900F90CF91DF9168
:100E80000895DF93CF9300D000D00F92CDB7DEB797
:100E900089836A834B838981282F30E03D832C83AB
:100EA0008C819D818130910509F447C02C813D8161
:100EB000223031052CF48C819D81009771F0CBC0DC
:100EC0002C813D812230310509F467C08C819D81E0
:100ED0008330910509F491C0BEC08B818130A1F4AB
:100EE000ABE3B0E0EBE3F0E08081482F8A81282F6C
:100EF00030E081E090E0022E02C0880F991F0A9432
:100F0000E2F7842B8C93A7C08B81882309F0A3C0C0
:100F1000ABE3B0E0EBE3F0E08081482F8A81282F3B
:100F200030E081E090E0022E02C0880F991F0A9401
:100F3000E2F7809584238C938EC08B818130A1F45D
:100F4000A8E3B0E0E8E3F0E08081482F8A81282F11
:100F500030E081E090E0022E02C0880F991F0A94D1
:100F6000E2F7842B8C9377C08B81882309F073C0C0
:100F7000A8E3B0E0E8E3F0E08081482F8A81282FE1
:100F800030E081E090E0022E02C0880F991F0A94A1
:100F9000E2F7809584238C935EC08B818130A1F42D
:100FA000A5E3B0E0E5E3F0E08081482F8A81282FB7
:100FB00030E081E090E0022E02C0880F991F0A9471
:100FC000E2F7842B8C9347C08B81882309F043C0C0
:100FD000A5E3B0E0E5E3F0E08081482F8A81282F87
:100FE00030E081E090E0022E02C0880F991F0A9441
:100FF000E2F7809584238C932EC08B818130A1F4FD
:10100000A2E3B0E0E2E3F0E08081482F8A81282F5C
:1010100030E081E090E0022E02C0880F991F0A9410
:10102000E2F7842B8C9317C08B818823A1F4A2E371
:10103000B0E0E2E3F0E08081482F8A81282F30E0A1
:1010400081E090E0022E02C0880F991F0A94E2F717
:10105000809584238C930F900F900F900F900F909A
:10106000CF91DF910895DF93CF9300D000D00F92FE
:10107000CDB7DEB78A836B8319828A81282F30E04F
:101080003D832C834C815D814130510541F18C8140
:101090009D818230910534F42C813D8121153105EB
:1010A00061F052C04C815D814230510551F18C811B
:1010B0009D8183309105B9F147C0E9E3F0E080817B
:1010C000282F30E08B81882F90E0A90102C0559530
:1010D00047958A95E2F7CA018170898335C0E6E3B6
:1010E000F0E08081282F30E08B81882F90E0A901EB
:1010F00002C0559547958A95E2F7CA0181708983A8
:1011000023C0E3E3F0E08081282F30E08B81882F3B
:1011100090E0A90102C0559547958A95E2F7CA016A
:101120008170898311C0E0E3F0E08081282F30E0F6
:101130008B81882F90E0A90102C0559547958A952B
:10114000E2F7CA018170898389810F900F900F9017
:101150000F900F90CF91DF910895DF93CF9300D040
:1011600000D0CDB7DEB789836A838981282F30E02C
:101170003C832B838B819C8181309105D1F02B8125
:101180003C81223031052CF48B819C81009761F0E9
:101190001EC02B813C812230310581F08B819C81E6
:1011A0008330910581F013C0EAE3F0E08A81808307
:1011B0000EC0E7E3F0E08A81808309C0E4E3F0E059
:1011C0008A81808304C0E1E3F0E08A8180830F900C
:1011D0000F900F900F90CF91DF910895DF93CF93F1
:1011E00000D000D0CDB7DEB789836A838981282FEC
:1011F00030E03C832B838B819C8181309105D1F041
:101200002B813C81223031052CF48B819C8100970D
:1012100061F01EC02B813C812230310581F08B8131
:101220009C818330910581F013C0EBE3F0E08A816B
:1012300080830EC0E8E3F0E08A81808309C0E5E3A3
:10124000F0E08A81808304C0E2E3F0E08A81808359
:101250000F900F900F900F90CF91DF910895DF9333
:10126000CF9300D000D0CDB7DEB78A8319828A81B0
:10127000282F30E03C832B838B819C81813091052A
:10128000D1F02B813C81223031052CF48B819C8163
:10129000009761F01EC02B813C812230310581F026
:1012A0008B819C818330910581F013C0E9E3F0E0EC
:1012B000808189830EC0E6E3F0E08081898309C0E4
:1012C000E3E3F0E08081898304C0E0E3F0E0808123
:1012D000898389810F900F900F900F90CF91DF91AC
:1012E0000895DF93CF9300D0CDB7DEB71A8219826D
:1012F00081E060E040E00E944F0681E061E040E074
:101300000E944F0681E062E040E00E944F0681E0CB
:1013100063E040E00E944F0681E064E040E00E940C
:101320004F0681E065E040E00E944F0681E066E004
:1013300040E00E944F0681E067E040E00E944F06D7
:101340001A8233C081E06A8141E00E944F0681E049
:101350006A8140E00E94410719821CC08981982F50
:101360009C5F81E0692F0E943308882381F48A8181
:10137000882F90E0880F991F880F991F982F8981D7
:10138000890F8F5F0F900F90CF91DF910895898122
:101390008F5F89838981843008F381E06A8140E02E
:1013A0000E944F068A818F5F8A838A81843050F23F
:1013B000C7CFDF93CF93CDB7DEB72E970FB6F89494
:1013C000DEBF0FBECDBF80E061E041E00E944F066E
:1013D00080E062E041E00E944F0680E063E041E08F
:1013E0000E944F0680E064E041E00E944F0680E0EA
:1013F00065E041E00E944F0680E066E041E00E9427
:101400004F0680E090E0A0EAB1E48B879C87AD872F
:10141000BE876B857C858D859E8520E030E04AEF18
:1014200054E40E941F02DC01CB018F839887A987B7
:10143000BA876F81788589859A8520E030E040E819
:101440005FE30E94250488232CF481E090E09E83D2
:101450008D833FC06F81788589859A8520E03FEF35
:101460004FE757E40E94C50318164CF56B857C8541
:101470008D859E8520E030E040E251E40E941F020D
:10148000DC01CB01BC01CD010E944900DC01CB0194
:101490009E838D830FC088EC90E09C838B838B812F
:1014A0009C810197F1F79C838B838D819E810197AD
:1014B0009E838D838D819E81009769F714C06F8113
:1014C000788589859A850E944900DC01CB019E833D
:1014D0008D838D819E819A83898389819A810197E9
:1014E000F1F79A83898383E30E948B0A82E30E9447
:1014F0008B0A88E20E948B0A8CE00E948B0A81E0B2
:101500000E948B0A2E960FB6F894DEBF0FBECDBF99
:10151000CF91DF9108950F931F93DF93CF93CDB7B2
:10152000DEB7C95AD0400FB6F894DEBF0FBECDBFAC
:10153000FE01E755FF4F808380E061E040E00E94BC
:101540004107FE01EB55FF4F80E090E0A0E8BFE3CC
:1015500080839183A283B3838E010F551F4FFE01B9
:10156000EB55FF4F60817181828193812BEA3AEACA
:101570004AE250E40E941F02DC01CB01F8018083A3
:101580009183A283B383FE01EF55FF4F6081718188
:101590008281938120E030E040E85FE30E942504EF
:1015A000882334F4FE01E056FF4F81E08083E0C0E1
:1015B000FE01EF55FF4F608171818281938120E0B0
:1015C00030E04FE753E40E94C50318160CF0C0C08A
:1015D000FE01EB55FF4F608171818281938120E094
:1015E00030E04AE754E40E941903DC01CB01FE011C
:1015F000E456FF4F80839183A283B3838E01085604
:101600001F4FFE01E456FF4F6081718182819381FB
:1016100020E030E04AEF54E40E941F02DC01CB01DD
:10162000F80180839183A283B383FE01E856FF4FC4
:10163000608171818281938120E030E040E85FE346
:101640000E942504882344F4FE01EA56FF4F81E0FE
:1016500090E09183808364C0FE01E856FF4F608173
:1016600071818281938120E03FEF4FE757E40E9430
:10167000C50318160CF043C0FE01E456FF4F60810D
:1016800071818281938120E030E040E251E40E9448
:101690001F02DC01CB018E010A561F4FBC01CD0198
:1016A0000E944900DC01CB01F801918380831FC0B7
:1016B000FE01EC56FF4F88EC90E091838083FE01A1
:1016C000EC56FF4F808191810197F1F7FE01EC56B6
:1016D000FF4F91838083DE01AA56BF4FFE01EA5679
:1016E000FF4F80819181019711969C938E93FE010B
:1016F000EA56FF4F808191810097D1F64BC08E0151
:101700000A561F4FFE01E856FF4F608171818281AA
:1017100093810E944900DC01CB01F8019183808311
:10172000DE01AE56BF4FFE01EA56FF4F8081918128
:1017300011969C938E93FE01EE56FF4F808191810E
:101740000197F1F7FE01EE56FF4F9183808322C08F
:101750008E0100561F4FFE01EF55FF4F60817181D2
:10176000828193810E944900DC01CB01F8018083D2
:10177000DE01AF56BF4FFE01E056FF4F80818C93D4
:10178000FE01EF56FF4F80818A95F1F7FE01EF567B
:10179000FF4F808380E062E041E00E944107FE014C
:1017A000E357FF4F80E090E0A0E8BFE380839183A0
:1017B000A283B3838E0107571F4FFE01E357FF4FEC
:1017C00060817181828193812BEA3AEA4AE250E496
:1017D0000E941F02DC01CB01F80180839183A28368
:1017E000B383FE01E757FF4F60817181828193814E
:1017F00020E030E040E85FE30E942504882334F4D1
:10180000FE01E857FF4F81E08083E0C0FE01E7570B
:10181000FF4F608171818281938120E030E04FE74A
:1018200053E40E94C50318160CF0C0C0FE01E35734
:10183000FF4F608171818281938120E030E04AE72F
:1018400054E40E941903DC01CB01FE01EC57FF4F69
:1018500080839183A283B3838E0100581F4FFE01C2
:10186000EC57FF4F608171818281938120E030E0ED
:101870004AEF54E40E941F02DC01CB01F80180838F
:101880009183A283B383FE01E058FF4F6081718191
:101890008281938120E030E040E85FE30E942504EC
:1018A000882344F4FE01E258FF4F81E090E09183E9
:1018B000808364C0FE01E058FF4F608171818281A6
:1018C000938120E03FEF4FE757E40E94C5031816CD
:1018D0000CF043C0FE01EC57FF4F608171818281A3
:1018E000938120E030E040E251E40E941F02DC01DD
:1018F000CB018E0102581F4FBC01CD010E9449004F
:10190000DC01CB01F801918380831FC0FE01E45804
:10191000FF4F88EC90E091838083FE01E458FF4FF5
:10192000808191810197F1F7FE01E458FF4F918387
:101930008083DE01A258BF4FFE01E258FF4F808135
:101940009181019711969C938E93FE01E258FF4F6F
:10195000808191810097D1F64BC08E0102581F4FB4
:10196000FE01E058FF4F60817181828193810E9466
:101970004900DC01CB01F80191838083DE01A65888
:10198000BF4FFE01E258FF4F8081918111969C93D9
:101990008E93FE01E658FF4F808191810197F1F708
:1019A000FE01E658FF4F9183808322C08E010857C5
:1019B0001F4FFE01E757FF4F608171818281938144
:1019C0000E944900DC01CB01F8018083DE01A758A9
:1019D000BF4FFE01E857FF4F80818C93FE01E7580F
:1019E000FF4F80818A95F1F7FE01E758FF4F808312
:1019F000FE01E755FF4F808182958F70982F91707F
:101A000080E063E0492F0E944107FE01E755FF4F48
:101A10008081829586958770982F917080E064E030
:101A2000492F0E944107FE01E755FF4F80818295B3
:101A3000869586958370982F917080E065E0492F98
:101A40000E944107FE01E755FF4F8081982F991FA3
:101A50009927991F80E066E0492F0E944107FE0107
:101A6000EB58FF4F80E090E0A0E8BFE380839183D4
:101A7000A283B3838E010F581F4FFE01EB58FF4F17
:101A800060817181828193812BEA3AEA4AE250E4D3
:101A90000E941F02DC01CB01F80180839183A283A5
:101AA000B383FE01EF58FF4F608171818281938182
:101AB00020E030E040E85FE30E942504882334F40E
:101AC000FE01E059FF4F81E08083E0C0FE01EF5846
:101AD000FF4F608171818281938120E030E04FE788
:101AE00053E40E94C50318160CF0C0C0FE01EB5869
:101AF000FF4F608171818281938120E030E04AE76D
:101B000054E40E941903DC01CB01FE01E459FF4FAC
:101B100080839183A283B3838E0108591F4FFE01F6
:101B2000E459FF4F608171818281938120E030E030
:101B30004AEF54E40E941F02DC01CB01F8018083CC
:101B40009183A283B383FE01E859FF4F60817181C5
:101B50008281938120E030E040E85FE30E94250429
:101B6000882344F4FE01EA59FF4F81E090E091831D
:101B7000808364C0FE01E859FF4F608171818281DA
:101B8000938120E03FEF4FE757E40E94C50318160A
:101B90000CF043C0FE01E459FF4F608171818281E6
:101BA000938120E030E040E251E40E941F02DC011A
:101BB000CB018E010A591F4FBC01CD010E94490083
:101BC000DC01CB01F801918380831FC0FE01EC5939
:101BD000FF4F88EC90E091838083FE01EC59FF4F2A
:101BE000808191810197F1F7FE01EC59FF4F9183BC
:101BF0008083DE01AA59BF4FFE01EA59FF4F808161
:101C00009181019711969C938E93FE01EA59FF4FA3
:101C1000808191810097D1F64BC08E010A591F4FE8
:101C2000FE01E859FF4F60817181828193810E949A
:101C30004900DC01CB01F80191838083DE01AE59BC
:101C4000BF4FFE01EA59FF4F8081918111969C930D
:101C50008E93FE01EE59FF4F808191810197F1F73C
:101C6000FE01EE59FF4F9183808322C08E010059FF
:101C70001F4FFE01EF58FF4F608171818281938178
:101C80000E944900DC01CB01F8018083DE01AF59DD
:101C9000BF4FFE01E059FF4F80818C93FE01EF5949
:101CA000FF4F80818A95F1F7FE01EF59FF4F808346
:101CB00080E062E040E00E944107FE01E35AFF4FEE
:101CC00080E090E0A0E8BFE380839183A283B383A8
:101CD0008E01075A1F4FFE01E35AFF4F6081718149
:101CE000828193812BEA3AEA4AE250E40E941F0281
:101CF000DC01CB01F80180839183A283B383FE01D1
:101D0000E75AFF4F608171818281938120E030E04A
:101D100040E85FE30E942504882334F4FE01E85A7A
:101D2000FF4F81E08083E0C0FE01E75AFF4F6081F2
:101D300071818281938120E030E04FE753E40E947B
:101D4000C50318160CF0C0C0FE01E35AFF4F6081B6
:101D500071818281938120E030E04AE754E40E945F
:101D60001903DC01CB01FE01EC5AFF4F8083918304
:101D7000A283B3838E01005B1F4FFE01EC5AFF4F1D
:101D8000608171818281938120E030E04AEF54E4E8
:101D90000E941F02DC01CB01F80180839183A283A2
:101DA000B383FE01E05BFF4F60817181828193818B
:101DB00020E030E040E85FE30E942504882344F4FB
:101DC000FE01E25BFF4F81E090E09183808364C07D
:101DD000FE01E05BFF4F608171818281938120E091
:101DE0003FEF4FE757E40E94C50318160CF043C0BD
:101DF000FE01EC5AFF4F608171818281938120E066
:101E000030E040E251E40E941F02DC01CB018E0170
:101E1000025B1F4FBC01CD010E944900DC01CB01D8
:101E2000F801918380831FC0FE01E45BFF4F88ECC3
:101E300090E091838083FE01E45BFF4F808191817C
:101E40000197F1F7FE01E45BFF4F91838083DE0190
:101E5000A25BBF4FFE01E25BFF4F80819181019742
:101E600011969C938E93FE01E25BFF4F80819181DE
:101E70000097D1F64BC08E01025B1F4FFE01E05B65
:101E8000FF4F60817181828193810E944900DC0152
:101E9000CB01F80191838083DE01A65BBF4FFE0179
:101EA000E25BFF4F8081918111969C938E93FE019E
:101EB000E65BFF4F808191810197F1F7FE01E65BC0
:101EC000FF4F9183808322C08E01085A1F4FFE016D
:101ED000E75AFF4F60817181828193810E9449009E
:101EE000DC01CB01F8018083DE01A75BBF4FFE015F
:101EF000E85AFF4F80818C93FE01E75BFF4F8081A2
:101F00008A95F1F7FE01E75BFF4F808380E062E096
:101F100041E00E944107FE01EB5BFF4F80E090E053
:101F2000A0E8BFE380839183A283B3838E010F5B1C
:101F30001F4FFE01EB5BFF4F6081718182819381B6
:101F40002BEA3AEA4AE250E40E941F02DC01CB018C
:101F5000F80180839183A283B383FE01EF5BFF4F7F
:101F6000608171818281938120E030E040E85FE30D
:101F70000E942504882334F481E0FE01E05CFF4FD9
:101F800080839DC0FE01EF5BFF4F60817181828184
:101F9000938120E030E04FE753E40E94C503181618
:101FA0000CF07EC0FE01EB5BFF4F6081718182818E
:101FB000938120E030E04AE754E40E941903DC01F9
:101FC000CB018CAF9DAFAEAFBFAF6CAD7DAD8EAD75
:101FD0009FAD20E030E04AEF54E40E941F02DC0194
:101FE000CB0188AF99AFAAAFBBAF68AD79AD8AAD71
:101FF0009BAD20E030E040E85FE30E9425048823A9
:102000002CF481E090E09FAB8EAB3FC068AD79AD22
:102010008AAD9BAD20E03FEF4FE757E40E94C50338
:1020200018164CF56CAD7DAD8EAD9FAD20E030E067
:1020300040E251E40E941F02DC01CB01BC01CD0152
:102040000E944900DC01CB019FAB8EAB0FC088EC36
:1020500090E09DAB8CAB8CA99DA90197F1F79DAB4E
:102060008CAB8EA99FA901979FAB8EAB8EA99FA920
:10207000009769F72DC068AD79AD8AAD9BAD0E9420
:102080004900DC01CB019FAB8EAB8EA99FA99BAB16
:102090008AAB8AA99BA90197F1F79BAB8AAB18C0C1
:1020A000FE01EF5BFF4F60817181828193810E940D
:1020B0004900DC01CB01FE01E05CFF4F8083FE01A3
:1020C000E05CFF4F808189AB89A98A95F1F789ABE4
:1020D000FE01E755FF4F8081982F917080E063E00B
:1020E000492F0E944107FE01E755FF4F80818695E9
:1020F000982F917080E064E0492F0E944107FE0113
:10210000E755FF4F808186958695982F917080E0E6
:1021100065E0492F0E944107FE01E755FF4F80818E
:10212000869586958695982F917080E066E0492F78
:102130000E94410780E090E0A0E8BFE38DA79EA742
:10214000AFA7B8AB6DA57EA58FA598A92BEA3AEAF3
:102150004AE250E40E941F02DC01CB0189A79AA742
:10216000ABA7BCA769A57AA58BA59CA520E030E00C
:1021700040E85FE30E94250488231CF481E088A7DF
:1021800091C069A57AA58BA59CA520E030E04FE71A
:1021900053E40E94C50318160CF07BC06DA57EA504
:1021A0008FA598A920E030E04AE754E40E94190383
:1021B000DC01CB018CA39DA3AEA3BFA36CA17DA129
:1021C0008EA19FA120E030E04AEF54E40E941F025C
:1021D000DC01CB0188A399A3AAA3BBA368A179A121
:1021E0008AA19BA120E030E040E85FE30E94250443
:1021F00088232CF481E090E09F8F8E8F3FC068A1F0
:1022000079A18AA19BA120E03FEF4FE757E40E940C
:10221000C50318164CF56CA17DA18EA19FA120E0ED
:1022200030E040E251E40E941F02DC01CB01BC011E
:10223000CD010E944900DC01CB019F8F8E8F0FC022
:1022400088EC90E09D8F8C8F8C8D9D8D0197F1F7A0
:102250009D8F8C8F8E8D9F8D01979F8F8E8F8E8DF2
:102260009F8D009769F724C068A179A18AA19BA1DD
:102270000E944900DC01CB019F8F8E8F8E8D9F8D38
:102280009B8F8A8F8A8D9B8D0197F1F79B8F8A8F09
:102290000FC069A57AA58BA59CA50E944900DC0109
:1022A000CB0188A788A5898F898D8A95F1F7898FB9
:1022B00080E062E040E00E94410780E090E0A0E81A
:1022C000BFE38D8B9E8BAF8BB88F6D897E898F8995
:1022D000988D2BEA3AEA4AE250E40E941F02DC01A0
:1022E000CB01898B9A8BAB8BBC8B69897A898B8963
:1022F0009C8920E030E040E85FE30E9425048823C9
:102300001CF481E0888B91C069897A898B899C89CA
:1023100020E030E04FE753E40E94C50318160CF0AC
:102320007BC06D897E898F89988D20E030E04AE7F7
:1023300054E40E941903DC01CB018C879D87AE8792
:10234000BF876C857D858E859F8520E030E04AEFD4
:1023500054E40E941F02DC01CB0188879987AA8779
:10236000BB87688579858A859B8520E030E040E8D9
:102370005FE30E94250488232CF481E090E09F8392
:102380008E833FC0688579858A859B8520E03FEFF5
:102390004FE757E40E94C50318164CF56C857D8500
:1023A0008E859F8520E030E040E251E40E941F02CC
:1023B000DC01CB01BC01CD010E944900DC01CB0155
:1023C0009F838E830FC088EC90E09D838C838C81EB
:1023D0009D810197F1F79D838C838E819F81019769
:1023E0009F838E838E819F81009769F724C06885C3
:1023F00079858A859B850E944900DC01CB019F83FA
:102400008E838E819F819B838A838A819B810197A2
:10241000F1F79B838A830FC069897A898B899C89AC
:102420000E944900DC01CB01888B888989838981DE
:102430008A95F1F78983C755DF4F0FB6F894DEBF51
:102440000FBECDBFCF91DF911F910F9108950F93D4
:102450001F93DF93CF93CDB7DEB7C95AD0400FB6E5
:10246000F894DEBF0FBECDBFFE01E755FF4F80835E
:1024700080E061E041E00E944107FE01EB55FF4F23
:1024800080E090E0A0E8BFE380839183A283B383E0
:102490008E010F551F4FFE01EB55FF4F608171817B
:1024A000828193812BEA3AEA4AE250E40E941F02B9
:1024B000DC01CB01F80180839183A283B383FE0109
:1024C000EF55FF4F608171818281938120E030E080
:1024D00040E85FE30E942504882334F4FE01E056BF
:1024E000FF4F81E08083E0C0FE01EF55FF4F608128
:1024F00071818281938120E030E04FE753E40E94B4
:10250000C50318160CF0C0C0FE01EB55FF4F6081EB
:1025100071818281938120E030E04AE754E40E9497
:102520001903DC01CB01FE01E456FF4F8083918348
:10253000A283B3838E0108561F4FFE01E456FF4F5E
:10254000608171818281938120E030E04AEF54E420
:102550000E941F02DC01CB01F80180839183A283DA
:10256000B383FE01E856FF4F6081718182819381C0
:1025700020E030E040E85FE30E942504882344F433
:10258000FE01EA56FF4F81E090E09183808364C0B2
:10259000FE01E856FF4F608171818281938120E0C6
:1025A0003FEF4FE757E40E94C50318160CF043C0F5
:1025B000FE01E456FF4F608171818281938120E0AA
:1025C00030E040E251E40E941F02DC01CB018E01A9
:1025D0000A561F4FBC01CD010E944900DC01CB010E
:1025E000F801918380831FC0FE01EC56FF4F88ECF9
:1025F00090E091838083FE01EC56FF4F80819181B2
:102600000197F1F7FE01EC56FF4F91838083DE01C5
:10261000AA56BF4FFE01EA56FF4F80819181019774
:1026200011969C938E93FE01EA56FF4F8081918113
:102630000097D1F64BC08E010A561F4FFE01E85697
:10264000FF4F60817181828193810E944900DC018A
:10265000CB01F80191838083DE01AE56BF4FFE01AE
:10266000EA56FF4F8081918111969C938E93FE01D3
:10267000EE56FF4F808191810197F1F7FE01EE56F2
:10268000FF4F9183808322C08E0100561F4FFE01B1
:10269000EF55FF4F60817181828193810E944900D3
:1026A000DC01CB01F8018083DE01AF56BF4FFE0194
:1026B000E056FF4F80818C93FE01EF56FF4F8081E3
:1026C0008A95F1F7FE01EF56FF4F808380E062E0CC
:1026D00041E00E944107FE01E357FF4F80E090E098
:1026E000A0E8BFE380839183A283B3838E01075761
:1026F0001F4FFE01E357FF4F6081718182819381FB
:102700002BEA3AEA4AE250E40E941F02DC01CB01C4
:10271000F80180839183A283B383FE01E757FF4FC3
:10272000608171818281938120E030E040E85FE345
:102730000E942504882334F4FE01E857FF4F81E00E
:102740008083E0C0FE01E757FF4F60817181828185
:10275000938120E030E04FE753E40E94C503181650
:102760000CF0C0C0FE01E357FF4F60817181828190
:10277000938120E030E04AE754E40E941903DC0131
:10278000CB01FE01EC57FF4F80839183A283B3837B
:102790008E0100581F4FFE01EC57FF4F6081718181
:1027A0008281938120E030E04AEF54E40E941F02CE
:1027B000DC01CB01F80180839183A283B383FE0106
:1027C000E058FF4F608171818281938120E030E089
:1027D00040E85FE30E942504882344F4FE01E258A8
:1027E000FF4F81E090E09183808364C0FE01E05858
:1027F000FF4F608171818281938120E03FEF4FE73D
:1028000057E40E94C50318160CF043C0FE01EC57B4
:10281000FF4F608171818281938120E030E040E24E
:1028200051E40E941F02DC01CB018E0102581F4FB0
:10283000BC01CD010E944900DC01CB01F80191836C
:1028400080831FC0FE01E458FF4F88EC90E0918325
:102850008083FE01E458FF4F808191810197F1F759
:10286000FE01E458FF4F91838083DE01A258BF4FE1
:10287000FE01E258FF4F80819181019711969C9350
:102880008E93FE01E258FF4F808191810097D1F62F
:102890004BC08E0102581F4FFE01E058FF4F608170
:1028A0007181828193810E944900DC01CB01F80192
:1028B00091838083DE01A658BF4FFE01E258FF4F8F
:1028C0008081918111969C938E93FE01E658FF4F73
:1028D000808191810197F1F7FE01E658FF4F9183C6
:1028E000808322C08E0108571F4FFE01E757FF4F1C
:1028F00060817181828193810E944900DC01CB015A
:10290000F8018083DE01A758BF4FFE01E857FF4F53
:1029100080818C93FE01E758FF4F80818A95F1F703
:10292000FE01E758FF4F8083FE01E755FF4F80818E
:1029300082958F70982F917080E063E0492F0E94FC
:102940004107FE01E755FF4F80818295869587708C
:10295000982F917080E064E0492F0E944107FE01AA
:10296000E755FF4F80818295869586958370982FD5
:10297000917080E065E0492F0E944107FE01E75514
:10298000FF4F8081982F991F9927991F80E066E05B
:10299000492F0E944107FE01EB58FF4F80E090E075
:1029A000A0E8BFE380839183A283B3838E010F5895
:1029B0001F4FFE01EB58FF4F60817181828193812F
:1029C0002BEA3AEA4AE250E40E941F02DC01CB0102
:1029D000F80180839183A283B383FE01EF58FF4FF8
:1029E000608171818281938120E030E040E85FE383
:1029F0000E942504882334F4FE01E059FF4F81E052
:102A00008083E0C0FE01EF58FF4F608171818281B9
:102A1000938120E030E04FE753E40E94C50318168D
:102A20000CF0C0C0FE01EB58FF4F608171818281C4
:102A3000938120E030E04AE754E40E941903DC016E
:102A4000CB01FE01E459FF4F80839183A283B383BE
:102A50008E0108591F4FFE01E459FF4F60817181BB
:102A60008281938120E030E04AEF54E40E941F020B
:102A7000DC01CB01F80180839183A283B383FE0143
:102A8000E859FF4F608171818281938120E030E0BD
:102A900040E85FE30E942504882344F4FE01EA59DC
:102AA000FF4F81E090E09183808364C0FE01E8598C
:102AB000FF4F608171818281938120E03FEF4FE77A
:102AC00057E40E94C50318160CF043C0FE01E459F8
:102AD000FF4F608171818281938120E030E040E28C
:102AE00051E40E941F02DC01CB018E010A591F4FE5
:102AF000BC01CD010E944900DC01CB01F8019183AA
:102B000080831FC0FE01EC59FF4F88EC90E0918359
:102B10008083FE01EC59FF4F808191810197F1F78D
:102B2000FE01EC59FF4F91838083DE01AA59BF4F0C
:102B3000FE01EA59FF4F80819181019711969C9384
:102B40008E93FE01EA59FF4F808191810097D1F663
:102B50004BC08E010A591F4FFE01E859FF4F60819B
:102B60007181828193810E944900DC01CB01F801CF
:102B700091838083DE01AE59BF4FFE01EA59FF4FBA
:102B80008081918111969C938E93FE01EE59FF4FA7
:102B9000808191810197F1F7FE01EE59FF4F9183FA
:102BA000808322C08E0100591F4FFE01EF58FF4F56
:102BB00060817181828193810E944900DC01CB0197
:102BC000F8018083DE01AF59BF4FFE01E059FF4F8E
:102BD00080818C93FE01EF59FF4F80818A95F1F738
:102BE000FE01EF59FF4F808380E062E040E00E94E9
:102BF0004107FE01E35AFF4F80E090E0A0E8BFE309
:102C000080839183A283B3838E01075A1F4FFE01F5
:102C1000E35AFF4F60817181828193812BEA3AEA06
:102C20004AE250E40E941F02DC01CB01F8018083DC
:102C30009183A283B383FE01E75AFF4F60817181C4
:102C40008281938120E030E040E85FE30E94250428
:102C5000882334F4FE01E85AFF4F81E08083E0C00E
:102C6000FE01E75AFF4F608171818281938120E0EC
:102C700030E04FE753E40E94C50318160CF0C0C0C3
:102C8000FE01E35AFF4F608171818281938120E0D0
:102C900030E04AE754E40E941903DC01CB01FE0155
:102CA000EC5AFF4F80839183A283B3838E01005B34
:102CB0001F4FFE01EC5AFF4F608171818281938129
:102CC00020E030E04AEF54E40E941F02DC01CB0117
:102CD000F80180839183A283B383FE01E05BFF4F01
:102CE000608171818281938120E030E040E85FE380
:102CF0000E942504882344F4FE01E25BFF4F81E03B
:102D000090E09183808364C0FE01E05BFF4F6081AF
:102D100071818281938120E03FEF4FE757E40E9469
:102D2000C50318160CF043C0FE01EC5AFF4F60813A
:102D300071818281938120E030E040E251E40E9481
:102D40001F02DC01CB018E01025B1F4FBC01CD01D4
:102D50000E944900DC01CB01F801918380831FC0F0
:102D6000FE01E45BFF4F88EC90E091838083FE01DD
:102D7000E45BFF4F808191810197F1F7FE01E45BF5
:102D8000FF4F91838083DE01A25BBF4FFE01E25BB8
:102D9000FF4F80819181019711969C938E93FE0144
:102DA000E25BFF4F808191810097D1F64BC08E018D
:102DB000025B1F4FFE01E05BFF4F608171818281EA
:102DC00093810E944900DC01CB01F801918380834B
:102DD000DE01A65BBF4FFE01E25BFF4F8081918168
:102DE00011969C938E93FE01E65BFF4F808191814B
:102DF0000197F1F7FE01E65BFF4F9183808322C0CC
:102E00008E01085A1F4FFE01E75AFF4F6081718102
:102E1000828193810E944900DC01CB01F80180830B
:102E2000DE01A75BBF4FFE01E85AFF4F80818C9304
:102E3000FE01E75BFF4F80818A95F1F7FE01E75BBA
:102E4000FF4F808380E062E041E00E944107FE0185
:102E5000EB5BFF4F80E090E0A0E8BFE380839183CD
:102E6000A283B3838E010F5B1F4FFE01EB5BFF4F0D
:102E700060817181828193812BEA3AEA4AE250E4CF
:102E80000E941F02DC01CB01F80180839183A283A1
:102E9000B383FE01EF5BFF4F60817181828193817B
:102EA00020E030E040E85FE30E942504882334F40A
:102EB00081E0FE01E05CFF4F80839DC0FE01EF5B7F
:102EC000FF4F608171818281938120E030E04FE784
:102ED00053E40E94C50318160CF07EC0FE01EB5BA4
:102EE000FF4F608171818281938120E030E04AE769
:102EF00054E40E941903DC01CB018CAF9DAFAEAF4F
:102F0000BFAF6CAD7DAD8EAD9FAD20E030E04AEF40
:102F100054E40E941F02DC01CB0188AF99AFAAAF35
:102F2000BBAF68AD79AD8AAD9BAD20E030E040E845
:102F30005FE30E94250488232CF481E090E09FAB9E
:102F40008EAB3FC068AD79AD8AAD9BAD20E03FEF61
:102F50004FE757E40E94C50318164CF56CAD7DADE4
:102F60008EAD9FAD20E030E040E251E40E941F02B0
:102F7000DC01CB01BC01CD010E944900DC01CB0189
:102F80009FAB8EAB0FC088EC90E09DAB8CAB8CA957
:102F90009DA90197F1F79DAB8CAB8EA99FA90197D5
:102FA0009FAB8EAB8EA99FA9009769F72DC068AD26
:102FB00079AD8AAD9BAD0E944900DC01CB019FAB8E
:102FC0008EAB8EA99FA99BAB8AAB8AA99BA90197BF
:102FD000F1F79BAB8AAB18C0FE01EF5BFF4F60813E
:102FE0007181828193810E944900DC01CB01FE0145
:102FF000E05CFF4F8083FE01E05CFF4F808189AB86
:1030000089A98A95F1F789ABFE01E755FF4F8081C9
:10301000982F917080E063E0492F0E944107FE01E4
:10302000E755FF4F80818695982F917080E064E08E
:10303000492F0E944107FE01E755FF4F8081869589
:103040008695982F917080E065E0492F0E94410796
:10305000FE01E755FF4F8081869586958695982FCE
:10306000917080E066E0492F0E94410780E090E087
:10307000A0E8BFE38DA79EA7AFA7B8AB6DA57EA5BF
:103080008FA598A92BEA3AEA4AE250E40E941F026F
:10309000DC01CB0189A79AA7ABA7BCA769A57AA534
:1030A0008BA59CA520E030E040E85FE30E9425046A
:1030B00088231CF481E088A791C069A57AA58BA517
:1030C0009CA520E030E04FE753E40E94C5031816AA
:1030D0000CF07BC06DA57EA58FA598A920E030E0FF
:1030E0004AE754E40E941903DC01CB018CA39DA3A1
:1030F000AEA3BFA36CA17DA18EA19FA120E030E073
:103100004AEF54E40E941F02DC01CB0188A399A37B
:10311000AAA3BBA368A179A18AA19BA120E030E06A
:1031200040E85FE30E94250488232CF481E090E0CE
:103130009F8F8E8F3FC068A179A18AA19BA120E0BB
:103140003FEF4FE757E40E94C50318164CF56CA1FA
:103150007DA18EA19FA120E030E040E251E40E94D9
:103160001F02DC01CB01BC01CD010E944900DC0142
:10317000CB019F8F8E8F0FC088EC90E09D8F8C8F3E
:103180008C8D9D8D0197F1F79D8F8C8F8E8D9F8DEE
:1031900001979F8F8E8F8E8D9F8D009769F724C02A
:1031A00068A179A18AA19BA10E944900DC01CB0101
:1031B0009F8F8E8F8E8D9F8D9B8F8A8F8A8D9B8DFB
:1031C0000197F1F79B8F8A8F0FC069A57AA58BA510
:1031D0009CA50E944900DC01CB0188A788A5898FA6
:1031E000898D8A95F1F7898F80E062E040E00E9446
:1031F000410780E090E0A0E8BFE38D8B9E8BAF8B12
:10320000B88F6D897E898F89988D2BEA3AEA4AE2D8
:1032100050E40E941F02DC01CB01898B9A8BAB8B9F
:10322000BC8B69897A898B899C8920E030E040E8F1
:103230005FE30E94250488231CF481E0888B91C001
:1032400069897A898B899C8920E030E04FE753E4D3
:103250000E94C50318160CF07BC06D897E898F898A
:10326000988D20E030E04AE754E40E941903DC0125
:10327000CB018C879D87AE87BF876C857D858E85CA
:103280009F8520E030E04AEF54E40E941F02DC01F9
:10329000CB0188879987AA87BB87688579858A85C6
:1032A0009B8520E030E040E85FE30E94250488230E
:1032B0002CF481E090E09F838E833FC06885798500
:1032C0008A859B8520E03FEF4FE757E40E94C503C6
:1032D00018164CF56C857D858E859F8520E030E045
:1032E00040E251E40E941F02DC01CB01BC01CD0190
:1032F0000E944900DC01CB019F838E830FC088ECC4
:1033000090E09D838C838C819D810197F1F79D8353
:103310008C838E819F8101979F838E838E819F8175
:10332000009769F724C0688579858A859B850E9406
:103330004900DC01CB019F838E838E819F819B831B
:103340008A838A819B810197F1F79B838A830FC0CF
:1033500069897A898B899C890E944900DC01CB01AB
:10336000888B8889898389818A95F1F78983C755F4
:10337000DF4F0FB6F894DEBF0FBECDBFCF91DF9108
:103380001F910F910895DF93CF9300D00F92CDB787
:10339000DEB79B838A8319820EC08981282F30E093
:1033A0008A819B81FC01E20FF31F80810E9427121A
:1033B00089818F5F89838981282F30E08A819B8171
:1033C000FC01E20FF31F8081882339F70F900F90E3
:1033D0000F90CF91DF910895DF93CF93CDB7DEB7F4
:1033E00062970FB6F894DEBF0FBECDBF9A8B898B64
:1033F00089899A899E012F5F3F4FB9014AE050E0C9
:103400000E944421CE0101960E94C31962960FB614
:10341000F894DEBF0FBECDBFCF91DF910895DF934B
:10342000CF9300D0CDB7DEB789836A8389818823A3
:1034300029F48A8180680E948B0A07C089818130C3
:1034400021F48A81806C0E948B0A0F900F90CF919B
:10345000DF910895DF93CF9300D000D0CDB7DEB7D2
:1034600089836A835C834B8389816A810E940F1AF6
:103470008B819C810E94C3190F900F900F900F9029
:10348000CF91DF910895DF93CF93CDB7DEB781E081
:103490000E948B0ACF91DF910895DF93CF93CDB730
:1034A000DEB70E94D909CF91DF910895DF93CF93C2
:1034B000CDB7DEB72E970FB6F894DEBF0FBECDBFE7
:1034C0000E94431A20E630E080E063E0A9010E94F8
:1034D0002A1A2BE630E081E061E0A9010E942A1A55
:1034E00080E090E0AAE7B4E48B879C87AD87BE8735
:1034F0006B857C858D859E8520E030E04AEF54E425
:103500000E941F02DC01CB018F839887A987BA87AD
:103510006F81788589859A8520E030E040E85FE317
:103520000E94250488232CF481E090E09E838D8303
:103530003FC06F81788589859A8520E03FEF4FE70E
:1035400057E40E94C50318164CF56B857C858D8564
:103550009E8520E030E040E251E40E941F02DC0141
:10356000CB01BC01CD010E944900DC01CB019E834F
:103570008D830FC088EC90E09C838B838B819C8132
:103580000197F1F79C838B838D819E8101979E83A8
:103590008D838D819E81009769F714C06F81788536
:1035A00089859A850E944900DC01CB019E838D8329
:1035B0008D819E819A83898389819A810197F1F710
:1035C0009A8389830E94ED1A2E960FB6F894DEBF77
:1035D0000FBECDBFCF91DF910895DF93CF93CDB7CD
:1035E000DEB70E94431A2AE730E080E061E0A901DB
:1035F0000E942A1A81E061E00E940F1A8091F00077
:10360000882F90E00E94EC192CE730E080E065E024
:10361000A9010E942A1A81E065E00E940F1A809198
:10362000F100882F90E00E94EC192EE730E080E056
:1036300069E0A9010E942A1A81E069E00E940F1A3C
:103640008091F200882F90E00E94EC1920E830E091
:1036500080E06DE0A9010E942A1A81E06DE00E94DD
:103660000F1A8091F300882F90E00E94EC190E94BD
:103670003C1BCF91DF9108950F931F93DF93CF935E
:10368000CDB7DEB7C557D0400FB6F894DEBF0FBE3A
:10369000CDBF8091F000282F30E08091F100882F7D
:1036A00090E0280F391F8091F200882F90E0280FBA
:1036B000391F8091F300882F90E0820F931FFE0145
:1036C000EE58FF4FAA2797FDA095BA2F80839183CC
:1036D000A283B3830E947109FE01EF58FF4F8083DC
:1036E000FE01EF58FF4F8081813009F0C3C0FE0119
:1036F000E359FF4F80E090E0A6E9B3E48083918333
:10370000A283B3838E0107591F4FFE01E359FF4F78
:10371000608171818281938120E030E04AEF54E43E
:103720000E941F02DC01CB01F80180839183A283F8
:10373000B383FE01E759FF4F6081718182819381DC
:1037400020E030E040E85FE30E942504882344F451
:10375000FE01E959FF4F81E090E09183808364C0CE
:10376000FE01E759FF4F608171818281938120E0E2
:103770003FEF4FE757E40E94C50318160CF043C013
:10378000FE01E359FF4F608171818281938120E0C6
:1037900030E040E251E40E941F02DC01CB018E01C7
:1037A00009591F4FBC01CD010E944900DC01CB012A
:1037B000F801918380831FC0FE01EB59FF4F88EC15
:1037C00090E091838083FE01EB59FF4F80819181CE
:1037D0000197F1F7FE01EB59FF4F91838083DE01E2
:1037E000A959BF4FFE01E959FF4F8081918101978F
:1037F00011969C938E93FE01E959FF4F8081918130
:103800000097D1F627C08E0109591F4FFE01E759D5
:10381000FF4F60817181828193810E944900DC01A8
:10382000CB01F80191838083DE01AD59BF4FFE01CA
:10383000E959FF4F808191818D939C93FE01ED5951
:10384000FF4F808191810197F1F7FE01ED59FF4F04
:10385000918380838091F0008F5F8093F00081E0FE
:1038600061E00E940F1A8091F000882F90E00E9482
:10387000EC19ADC4FE01EF58FF4F8081823009F092
:10388000C3C0FE01E15AFF4F80E090E0A6E9B3E437
:1038900080839183A283B3838E01055A1F4FFE015B
:1038A000E15AFF4F608171818281938120E030E095
:1038B0004AEF54E40E941F02DC01CB01F80180832F
:1038C0009183A283B383FE01E55AFF4F608171812A
:1038D0008281938120E030E040E85FE30E9425048C
:1038E000882344F4FE01E75AFF4F81E090E0918382
:1038F000808364C0FE01E55AFF4F6081718182813F
:10390000938120E03FEF4FE757E40E94C50318166C
:103910000CF043C0FE01E15AFF4F6081718182814A
:10392000938120E030E040E251E40E941F02DC017C
:10393000CB018E01075A1F4FBC01CD010E944900E7
:10394000DC01CB01F801918380831FC0FE01E95A9D
:10395000FF4F88EC90E091838083FE01E95AFF4F8E
:10396000808191810197F1F7FE01E95AFF4F918320
:103970008083DE01A75ABF4FFE01E75AFF4F8081C7
:103980009181019711969C938E93FE01E75AFF4F08
:10399000808191810097D1F627C08E01075A1F4F71
:1039A000FE01E55AFF4F60817181828193810E94FF
:1039B0004900DC01CB01F80191838083DE01AB5A21
:1039C000BF4FFE01E75AFF4F808191818D939C93F9
:1039D000FE01EB5AFF4F808191810197F1F7FE01C3
:1039E000EB5AFF4F918380838091F1008F5F80932A
:1039F000F10081E065E00E940F1A8091F100882FAC
:103A000090E00E94EC19E3C3FE01EF58FF4F808164
:103A1000833009F0C3C0FE01EF5AFF4F80E090E011
:103A2000A6E9B3E480839183A283B3838E01035B11
:103A30001F4FFE01EF5AFF4F608171818281938198
:103A400020E030E04AEF54E40E941F02DC01CB0189
:103A5000F80180839183A283B383FE01E35BFF4F70
:103A6000608171818281938120E030E040E85FE3F2
:103A70000E942504882344F4FE01E55BFF4F81E0AA
:103A800090E09183808364C0FE01E35BFF4F60811F
:103A900071818281938120E03FEF4FE757E40E94DC
:103AA000C50318160CF043C0FE01EF5AFF4F6081AA
:103AB00071818281938120E030E040E251E40E94F4
:103AC0001F02DC01CB018E01055B1F4FBC01CD0144
:103AD0000E944900DC01CB01F801918380831FC063
:103AE000FE01E75BFF4F88EC90E091838083FE014D
:103AF000E75BFF4F808191810197F1F7FE01E75B62
:103B0000FF4F91838083DE01A55BBF4FFE01E55B24
:103B1000FF4F80819181019711969C938E93FE01B6
:103B2000E55BFF4F808191810097D1F627C08E0120
:103B3000055B1F4FFE01E35BFF4F60817181828156
:103B400093810E944900DC01CB01F80191838083BD
:103B5000DE01A95BBF4FFE01E55BFF4F80819181D4
:103B60008D939C93FE01E95BFF4F808191810197CA
:103B7000F1F7FE01E95BFF4F918380838091F200B2
:103B80008F5F8093F20081E069E00E940F1A8091BC
:103B9000F200882F90E00E94EC1919C3FE01EF5843
:103BA000FF4F8081843009F095C0FE01ED5BFF4F2F
:103BB00080E090E0A6E9B3E480839183A283B3839D
:103BC0008E01015C1F4FFE01ED5BFF4F6081718133
:103BD0008281938120E030E04AEF54E40E941F028A
:103BE000DC01CB01F80180839183A283B383FE01C2
:103BF000FF96608171818281938120E030E040E80E
:103C00005FE30E94250488232CF481E090E09EAFBE
:103C10008DAF46C0FE01FF966081718182819381E4
:103C200020E03FEF4FE757E40E94C503181664F504
:103C3000FE01ED5BFF4F608171818281938120E005
:103C400030E040E251E40E941F02DC01CB01BC01E4
:103C5000CD010E944900DC01CB019EAF8DAF0FC0AA
:103C600088EC90E09CAF8BAF8BAD9CAD0197F1F7EA
:103C70009CAF8BAF8DAD9EAD01979EAF8DAF8DADDF
:103C80009EAD009769F716C0FE01FF9660817181B5
:103C9000828193810E944900DC01CB019EAF8DAFF0
:103CA0008DAD9EAD9AAF89AF89AD9AAD0197F1F711
:103CB0009AAF89AF8091F3008F5F8093F30081E02A
:103CC0006DE00E940F1A8091F300882F90E00E940F
:103CD000EC197DC2FE01EF58FF4F8081853009F05D
:103CE00070C180E090E0A6E9B3E48DAB9EABAFABD2
:103CF000B8AF6DA97EA98FA998AD20E030E04AEF5A
:103D000054E40E941F02DC01CB0189AB9AABABAB40
:103D1000BCAB69A97AA98BA99CA920E030E040E856
:103D20005FE30E94250488232CF481E090E098ABA7
:103D30008FA73FC069A97AA98BA99CA920E03FEF72
:103D40004FE757E40E94C50318164CF56DA97EA9EC
:103D50008FA998AD20E030E040E251E40E941F02BC
:103D6000DC01CB01BC01CD010E944900DC01CB018B
:103D700098AB8FA70FC088EC90E09EA78DA78DA56C
:103D80009EA50197F1F79EA78DA78FA598A90197EA
:103D900098AB8FA78FA598A9009769F714C069A958
:103DA0007AA98BA99CA90E944900DC01CB0198ABA0
:103DB0008FA78FA598A99CA78BA78BA59CA50197DA
:103DC000F1F79CA78BA7FE01EE58FF4F80819181F0
:103DD000A281B3810097A105B10509F4EBC09091D0
:103DE000F0008091F100891798F49091F000809193
:103DF000F200891768F49091F0008091F300891720
:103E000038F40E94431A82E890E00E94C319DFC18F
:103E10009091F1008091F000891798F49091F10051
:103E20008091F200891768F49091F1008091F3007D
:103E3000891738F40E94431A8EE890E00E94C31953
:103E4000C6C19091F2008091F000891798F490918A
:103E5000F2008091F100891768F49091F20080914E
:103E6000F300891738F40E94431A8AE990E00E940F
:103E7000C319ADC19091F3008091F000891798F4B7
:103E80009091F3008091F100891768F49091F3000C
:103E90008091F200891738F40E94431A86EA90E074
:103EA0000E94C31994C10E94431A22EB30E080E0C3
:103EB00061E0A9010E942A1A2CEB30E081E061E068
:103EC000A9010E942A1A80E090E0AAE7B4E48FA337
:103ED00098A7A9A7BAA76FA178A589A59AA520E058
:103EE00030E04AEF54E40E941F02DC01CB018BA3B7
:103EF0009CA3ADA3BEA36BA17CA18DA19EA120E03C
:103F000030E040E85FE30E94250488232CF481E040
:103F100090E09AA389A33FC06BA17CA18DA19EA133
:103F200020E03FEF4FE757E40E94C50318164CF519
:103F30006FA178A589A59AA520E030E040E251E480
:103F40000E941F02DC01CB01BC01CD010E9449008F
:103F5000DC01CB019AA389A30FC088EC90E098A361
:103F60008F8F8F8D98A10197F1F798A38F8F89A1DB
:103F70009AA101979AA389A389A19AA1009769F7A9
:103F800014C06BA17CA18DA19EA10E944900DC01FF
:103F9000CB019AA389A389A19AA19E8F8D8F8D8D24
:103FA0009E8D0197F1F79E8F8D8F0E94F5200E94C4
:103FB000ED1A0DC10E94431A84EC90E00E94C319CF
:103FC00006C1FE01EF58FF4F8081863009F080C0A6
:103FD0000E94431A0E94F5202EEC30E080E061E060
:103FE000A9010E942A1A80E090E0AAE7B4E4898F30
:103FF0009A8FAB8FBC8F698D7A8D8B8D9C8D20E0D5
:1040000030E04AEF54E40E941F02DC01CB018D8BAB
:104010009E8BAF8BB88F6D897E898F89988D20E0BC
:1040200030E040E85FE30E94250488232CF481E01F
:1040300090E09C8B8B8B3FC06D897E898F89988D9A
:1040400020E03FEF4FE757E40E94C50318164CF5F8
:10405000698D7A8D8B8D9C8D20E030E040E251E4BB
:104060000E941F02DC01CB01BC01CD010E9449006E
:10407000DC01CB019C8B8B8B0FC088EC90E09A8B82
:10408000898B89899A890197F1F79A8B898B8B891A
:104090009C8901979C8B8B8B8B899C89009769F7F6
:1040A00014C06D897E898F89988D0E944900DC013A
:1040B000CB019C8B8B8B8B899C89988B8F878F8571
:1040C00098890197F1F7988B8F870E94561A7FC0C5
:1040D0000E94431A2CED30E080E062E0A9010E94CA
:1040E0002A1A80E090E0AAE7B4E48B879C87AD872A
:1040F000BE876B857C858D859E8520E030E04AEF0C
:1041000054E40E941F02DC01CB018F839887A987AA
:10411000BA876F81788589859A8520E030E040E80C
:104120005FE30E94250488232CF481E090E09E83C5
:104130008D833FC06F81788589859A8520E03FEF28
:104140004FE757E40E94C50318164CF56B857C8534
:104150008D859E8520E030E040E251E40E941F0200
:10416000DC01CB01BC01CD010E944900DC01CB0187
:104170009E838D830FC088EC90E09C838B838B8122
:104180009C810197F1F79C838B838D819E810197A0
:104190009E838D838D819E81009769F714C06F8106
:1041A000788589859A850E944900DC01CB019E8330
:1041B0008D838D819E819A83898389819A810197DC
:1041C000F1F79A8389830E94F5200E94ED1A0E94DC
:1041D0003C1BCB58DF4F0FB6F894DEBF0FBECDBFF0
:1041E000CF91DF911F910F910895DF93CF93CDB7BA
:1041F000DEB71092F0001092F1001092F2001092CF
:10420000F300CF91DF910895DF93CF93CDB7DEB761
:104210000E944D1A0E94561AFFCF2F923F924F9242
:104220005F926F927F928F929F92AF92BF92CF9246
:10423000DF92EF92FF920F931F93CF93DF93CDB74F
:10424000DEB7CA1BDB0B0FB6F894DEBF0FBECDBFC7
:1042500009942A88398848885F846E847D848C8498
:104260009B84AA84B984C884DF80EE80FD800C81A1
:104270001B81AA81B981CE0FD11D0FB6F894DEBF84
:104280000FBECDBFED010895FB019F01E8944230C0
:10429000C4F04532B4F44A3029F497FB1EF49095EB
:1042A00081959F4F642F77270E947521805D8A3307
:1042B0000CF0895D8193CB010097A1F716F45DE2C4
:1042C00051931082C9010C946521DC01FC01672F18
:1042D00071917723E1F7329704C07C916D937083DD
:1042E0006291AE17BF07C8F30895AA1BBB1B51E12B
:1042F00007C0AA1FBB1FA617B70710F0A61BB70B56
:10430000881F991F5A95A9F780959095BC01CD01FA
:064310000895F894FFCFB0
:10431600456C656374726F6E696300566F74696E7F
:1043260067204D616368696E650041004200430085
:104336004400412069732077696E6E6572004220E1
:1043460069732077696E6E65720043206973207702
:10435600696E6E657200442069732077696E6E65BA
:1043660072004E4F20526573756C740052452D567F
:104376004F5445004E4F20566F74696E67002053A8
:10438600797374656D2052657365740057726F6E2C
:104396006720496E70757400000000000000000080
:00000001FF
